:03000000020100FA
:10010000758160753B00754200753C01753D00C20C
:10011000A3C2A2753760753802753940753AFF750C
:10012000430012057C1205A890029F1205AEE53B24
:10013000701912060240061206370201BF74C0127F
:10014000058C9002AE1205AE0202500201BFE53DE1
:10015000600914604114607402025074C012058C6E
:100160007810742012059AD8FB74C012058C120600
:100170008902025074C012058C9002BC1205AE7444
:10018000C612058C854031853F30854136120637D1
:1001900012068902025074C012058C9002BC12052E
:1001A000AEE531C0E0E530C0E0E536C0E08538318D
:1001B000853730753600E53854806078753601E54E
:1001C0003B608B1460AE14604A02025074C012058A
:1001D0008C9002C31205AEE531C0E0E530C0E0E529
:1001E00036C0E0853A31853930E53A54806005758E
:1001F0003601800375360012063774C612058C125C
:100200000689D0E0F536D0E0F530D0E0F5311206C1
:1002100037803D74C012058C9002C31205AE74C6BF
:1002200012058C854031853F3085413612063712E4
:100230000689801C12063774C612058C120689D0F6
:10024000E0F536D0E0F530D0E0F531120637800029
:100250001202D41203D912040E12044312053DE512
:100260003B702DE53D6029E53E6020153E80211262
:0202700006374F
:1002720074C612058C120689D0E0F536D0E0F5304E
:10028200D0E0F53112063780C5753D008000780A4E
:1002920079327AFADAFED9FAD8F602012E54656D6D
:1002A20070657261747572653A0043004572726FCF
:1002B200722120202020202020004854656D703AB1
:1002C200004C54656D703A20004354656D703A20BD
:1002D20000223090047543002212047B0543E5435B
:1002E200B401EE754300120480E53BF542E542B4E9
:1002F2000108854038853F378009B4020685403AB7
:10030200853F39E53B2401B403027400F53BE53B2C
:100312006056B4011485373F853840754100E53891
:10032200548060037541018040B4023D85393F85A8
:100332003A40754100E53A54806018754101B402B3
:100342002885393F853A40754100E53A548060037B
:100352007541018014E542B40108854038853F3774
:10036200806D85403A853F39221205A874801205B6
:100372008C90029F1205AEE53B6045B4012174C02A
:1003820012058C9002BC1205AE74C612058C854013
:1003920031853F30854136120637120689802C742A
:1003A200C012058C9002C31205AE74C612058C856C
:1003B2004031853F30854136120637120689800B5F
:1003C20074C012058C9002CB1205AE3090FD221241
:1003D20004803090FD22223091012212047B209170
:1003E200F5E53B601912049174C612058C85403103
:1003F200853F308541361206371206898006753DE3
:1004020001753E021204803091FD222230920122B7
:0A04120012047B2092F5E53B60190F
:10041C001204D574C612058C854031853F30854158
:10042C00361206371206898006753D02753E021299
:10043C0004803092FD22223093012212047B2093FF
:10044C00F5E53B601EE541F4F54112051B74C6123F
:10045C00058C854031853F308541361206371206B2
:10046C00898005E53CF4F53C1204803093FD227D37
:10047C000ADDFE22E53C600CD2A27E0A7FFADFFE8A
:10048C00DEFAC2A222E541702AE53F2410F53FE5D1
:10049C00403400F540E540700FE53FB4D00A400809
:1004AC00753FD07540078020E5405480601A754137
:1004BC00008015E53F2410F53FE5403400F540E59C
:1004CC00405480700375410022E541602BE53FC329
:1004DC009410F53FE5409400F540E540B4FF0EE57F
:1004EC003FB4B0095007753F907540FC22E540546D
:1004FC0080701B7541018016E53FC39410F53FE5F4
:10050C00409400F540E5405480600375410122E5BC
:10051C0041700FE53FF42401F53FE540F43400F55C
:10052C004022E53FF42401F53FE540F43400F5406A
:10053C0022E544FAE545FBC3E538953A7004E53706
:06054C0095394014C3EBD9
:100552009539EA953A401DC3E5379BE5389A401430
:100562008015C3E5379BE5389A500CC3EB9539EA01
:10057200953A5003D2A322C2A322743812058C7476
:100582000C12058C740612058C22C2A5C2A6F5B007
:10059200D2A7C2A71206CA22D2A5C2A6F5B0D2A776
:1005A200C2A71206CA22740112058C22E4936006C5
:1005B20012059AA380F622C2A47EFADEFED2A47E9F
:1005C2001EDEFE20A4087EF0DEFED2A4C322D2A448
:1005D200D3227F08C2A47E04DEFE1392A47E18DE1C
:1005E200FED2A4DFEFD2A4227F08C2A47E02DEFEE6
:1005F200D2A47E04DEFEA2A4137E18DEFEDFEB226E
:100602001205B974CC1205D474441205D47896122A
:1006120006D3D8FB1205B9401A74CC1205D474BEA5
:100622001205D41205EAF530F5451205EAF531F561
:1006320044C322D322E53154806015753601E5307A
:10064200F42401F530E531F43400547FF5318009AA
:10065200753600E531540FF531E531540F75F01060
:09066200A4F8E530C4540F28F996
:10066B0075F06484F532E5F075F00A84F53385F0A6
:10067B0034E530540F75F006A4E5F0F53522E53678
:10068B006007742D12059A8005742012059AE532C5
:10069B006007243012059A8005742012059AE53301
:1006AB00243012059AE534243012059A742E120563
:1006BB009AE535243012059A9002AC1205AE227BD6
:1006CB000A7C50DCFEDBFA227D051206CADDFB221A
:00000001FF
